:04000000EFEF01F02D
:100008005C82FACF51F0FBCF52F0F2A80EEF00F06D
:1000180010EF00F019EF00F0F2A215EF00F017EF63
:1000280000F019EF00F0A7EC0CF0F0A61EEF00F0BE
:1000380020EF00F029EF00F0F0A025EF00F027EF07
:1000480000F029EF00F0A5EC0CF0F0A82EEF00F07E
:1000580030EF00F039EF00F0F0A235EF00F037EFA5
:1000680000F039EF00F0A3EC0CF0F2A63EEF00F040
:1000780040EF00F061EF00F0F2A045EF00F047EF2D
:1000880000F061EF00F07DA84CEF00F04EEF00F0BB
:1000980061EF00F04B04D8A454EF00F056EF00F0E5
:1000A80061EF00F081A85BEF00F05DEF00F061EF19
:1000B80000F0000E4B6E9CEC0CF0F2A666EF00F020
:1000C80068EF00F089EF00F0F2A06DEF00F06FEF3D
:1000D80000F089EF00F07DA874EF00F076EF00F0F3
:1000E80089EF00F04B50D8A47CEF00F07EEF00F0D1
:1000F80089EF00F081B883EF00F085EF00F089EF19
:1001080000F0010E4B6E98EC0CF0F2A68EEF00F0AA
:1001180090EF00F0B1EF00F0F2A095EF00F097EF4C
:1001280000F0B1EF00F07DAA9CEF00F09EEF00F028
:10013800B1EF00F04A04D8A4A4EF00F0A6EF00F055
:10014800B1EF00F081AAABEF00F0ADEF00F0B1EF36
:1001580000F0000E4A6E94EC0CF0F2A6B6EF00F038
:10016800B8EF00F0D9EF00F0F2A0BDEF00F0BFEF5C
:1001780000F0D9EF00F07DAAC4EF00F0C6EF00F060
:10018800D9EF00F04A50D8A4CCEF00F0CEEF00F041
:10019800D9EF00F081BAD3EF00F0D5EF00F0D9EF36
:1001A80000F0010E4A6E90EC0CF0F2A6DEEF00F0C3
:1001B800E0EF00F001EF01F0F2A0E5EF00F0E7EF6B
:1001C80000F001EF01F07DACECEF00F0EEEF00F095
:1001D80001EF01F04904D8A4F4EF00F0F6EF00F0C5
:1001E80001EF01F081ACFBEF00F0FDEF00F001EF53
:1001F80001F0000E496E8CEC0CF0F2A606EF01F04F
:1002080008EF01F029EF01F0F2A00DEF01F00FEF78
:1002180001F029EF01F07DAC14EF01F016EF01F0C9
:1002280029EF01F04950D8A41CEF01F01EEF01F0AE
:1002380029EF01F081BC23EF01F025EF01F029EF50
:1002480001F0010E496E88EC0CF0F2A62EEF01F0D9
:1002580030EF01F051EF01F0F2A035EF01F037EF88
:1002680001F051EF01F07DAE3CEF01F03EEF01F0FF
:1002780051EF01F04804D8A444EF01F046EF01F033
:1002880051EF01F081AE4BEF01F04DEF01F051EF6E
:1002980001F0000E486E84EC0CF0F2A656EF01F067
:1002A80058EF01F079EF01F0F2A05DEF01F05FEF98
:1002B80001F079EF01F07DAE64EF01F066EF01F037
:1002C80079EF01F04850D8A46CEF01F06EEF01F01F
:1002D80079EF01F081BE73EF01F075EF01F079EF6E
:1002E80001F0010E486E80EC0CF09DAC7EEF01F041
:1002F80080EF01F089EF01F09EAC85EF01F087EF08
:1003080001F089EF01F0ABEC0CF0F2AA8EEF01F0EE
:1003180090EF01F099EF01F0F2A495EF01F097EF5B
:1003280001F099EF01F076EC0CF09DA09EEF01F042
:10033800A0EF01F0A9EF01F09EA0A5EF01F0A7EF53
:1003480001F0A9EF01F070EC0CF09DA2AEEF01F006
:10035800B0EF01F0B9EF01F09EA2B5EF01F0B7EFF1
:1003680001F0B9EF01F07CEC0CF0A0A2BEEF01F0B7
:10037800C0EF01F0C9EF01F0A1A2C5EF01F0C7EF8E
:1003880001F0C9EF01F0EDEC0BF09DA4CEEF01F008
:10039800D0EF01F0D9EF01F09EA4D5EF01F0D7EF2F
:1003A80001F0D9EF01F0A9EC0CF0A0A0DEEF01F00C
:1003B800E0EF01F0E9EF01F0A1A0E5EF01F0E7EFD0
:1003C80001F0E9EF01F03BEC0CF052C0FBFF51C02B
:0A03D800FAFF5C92110032EF0BF007
:10100000003738392F343536783132332D63303D5F
:051010002B2569000022
:101016005550D96EDA6ADF50D8A414EF08F016EFEF
:1010260008F05EEF08F038EF08F0BD50F00B080945
:10103600BD6EAFEF08F0BD50F00B0909BD6EAFEF06
:1010460008F0BD50F00B0209BD6EAFEF08F0BD50C1
:10105600F00B0A09BD6EAFEF08F0BD50F00B0B099F
:10106600BD6EAFEF08F0AFEF08F05550D96EDA6AF3
:10107600020ED926DF50566E576A5750000AD8B46A
:1010860047EF08F036EF08F05650020AD8B424EFBE
:1010960008F00A0AD8B418EF08F0010AD8B41EEF0F
:1010A60008F0030AD8B42AEF08F0010AD8B430EFE2
:1010B60008F036EF08F05550D96EDA6ADE04D8A487
:1010C60067EF08F069EF08F0AFEF08F089EF08F076
:1010D600BA50F00B0809BA6EAFEF08F0BA50F00B31
:1010E6000909BA6EAFEF08F0BA50F00B0209BA6EF2
:1010F600AFEF08F0BA50F00B0A09BA6EAFEF08F07E
:10110600BA50F00B0B09BA6EAFEF08F05550D96E16
:10111600DA6A020ED926DF50566E576A5750000A11
:10112600D8B498EF08F036EF08F05650020AD8B453
:1011360077EF08F00A0AD8B46BEF08F0010AD8B4C2
:1011460071EF08F0030AD8B47DEF08F0010AD8B4AD
:1011560083EF08F036EF08F055C053F0FDEC0AF0C7
:101166001200010E586E5550D96EDA6ADF50D8A4B7
:10117600BFEF08F0C1EF08F001EF09F0DFEF08F06C
:10118600BD50F00B0409BD6E48EF09F0BD50F00BE1
:101196000509BD6E48EF09F0BD50F00B0609BD6E9E
:1011A60048EF09F0BD50F00B0709BD6E48EF09F096
:1011B600000E586E48EF09F05550D96EDA6A020EE5
:1011C600D926DF50566E576A5750000AD8B4EEEF4C
:1011D60008F0DBEF08F05650040AD8B4C3EF08F065
:1011E600010AD8B4C9EF08F0030AD8B4CFEF08F063
:1011F600010AD8B4D5EF08F0DBEF08F05550D96EE8
:10120600DA6ADE04D8A40AEF09F00CEF09F048EF19
:1012160009F026EF09F0BA50F00B0409BA6E48EF50
:1012260009F0BA50F00B0509BA6E48EF09F0BA504A
:10123600F00B0609BA6E48EF09F0BA50F00B070931
:10124600BA6E48EF09F05550D96EDA6A020ED92601
:10125600DF50566E576A5750000AD8B435EF09F07A
:10126600DBEF08F05650040AD8B40EEF09F0010A75
:10127600D8B414EF09F0030AD8B41AEF09F0010A3A
:10128600D8B420EF09F0DBEF08F055C053F0FDECC1
:101296000AF058501200010E596E5350D8B456EF4A
:1012A60009F058EF09F068EF09F05350D96EDA6A81
:1012B600DF30E832E832070B546E070E546466EFEF
:1012C60009F068EF09F0BFEF09F0000E596EDFEF85
:1012D60009F05350D96EDA6ADF30E832E832070B8C
:1012E600546E010E556E542A7BEF09F0D890553690
:1012F600542E79EF09F05550FF0A566E5350D96EA9
:10130600DA6ADF50070B020DF3506A0FD96EDA6AFC
:10131600DECF57F0DDCF58F057C0D9FF58C0DAFFFF
:101326005650DF16DFEF09F05350D96EDA6ADF3018
:10133600E832E832070B546E010E556E542AA6EFBA
:1013460009F0D8905536542EA4EF09F05350D96EB3
:10135600DA6ADF50070B020DF3506A0FD96EDA6AAC
:10136600DECF56F0DDCF57F056C0D9FF57C0DAFFB3
:101376005550DF12DFEF09F05350D96EDA6ADFBE3F
:10138600C7EF09F0CAEF09F0010ECBEF09F0000E26
:10139600546E556A5550000AD8B4D4EF09F068EF78
:1013A60009F05450000AD8B46CEF09F0010AD8B419
:1013B60097EF09F068EF09F0595012005350D8B46E
:1013C600E7EF09F0E9EF09F0F9EF09F05350D96EAC
:1013D600DA6ADF30E832E832070B556E070E5564DD
:1013E600F7EF09F0F9EF09F04EEF0AF063EF0AF0B4
:1013F6005350D96EDA6ADF30E832E832070B556EA1
:10140600010E566E552A0AEF0AF0D8905636552E1A
:1014160008EF0AF05650FF0A576E5350D96EDA6A33
:10142600DF50070B020DF350320FD96EDA6ADECFAA
:1014360058F0DDCF59F058C0D9FF59C0DAFF5750E0
:10144600DF1663EF0AF05350D96EDA6ADF30E832FE
:10145600E832070B556E010E566E552A35EF0AF027
:10146600D8905636552E33EF0AF05350D96EDA6AB5
:10147600DF50070B020DF350320FD96EDA6ADECF5A
:1014860057F0DDCF58F057C0D9FF58C0DAFF565095
:10149600DF1263EF0AF05450556E566A5650000A32
:1014A600D8B458EF0AF0F9EF09F05550000AD8B44D
:1014B600FBEF09F0010AD8B426EF0AF0F9EF09F0BC
:1014C60012000001A151D8A46BEF0AF06DEF0AF0EB
:1014D6006FEF0AF0B9EF0AF0A151D96EDA6ADF5060
:1014E600D8A478EF0AF07AEF0AF07EEF0AF0F00E51
:1014F600BD168BEF0AF0A151D96EDA6ADE04D8A4C4
:1015060087EF0AF089EF0AF08BEF0AF0F00EBA16B1
:10151600A151D96EDA6A010ED926DF50D8A496EF0A
:101526000AF098EF0AF09EEF0AF0A1C055F0B4EC6D
:1015360008F0AFEF0AF0A151D96EDA6A010ED9268A
:10154600DE04D8A4A9EF0AF0ABEF0AF0AFEF0AF079
:10155600A1C055F00BEC08F00001A151030F5A6E23
:1015660008EC0CF0A1C053F0D0EC0BF01200555073
:10157600D8A4C0EF0AF0C2EF0AF0C4EF0AF0FCEFFD
:101586000AF0B19055C053F022EC0CF055C053F060
:101596008BEC0BF055C053F064EC0BF05550D96E44
:1015A600DA6A030ED926DECF56F0DDCF57F057C0E4
:1015B60056F0576A5650B36E5550D96EDA6A030E16
:1015C600D926DF50B26E5550D96EDA6A030ED92687
:1015D600DECF03F0DDCF04F0A082A192F28EF28C72
:1015E600D09E5550D96EDA6ADECF01F0DDCF02F01B
:1015F600B18012005350D96EDA6A040ED926DF5034
:10160600D8A408EF0BF00AEF0BF00EEF0BF0B19633
:10161600B18C31EF0BF05350D96EDA6A040ED9262D
:10162600DE04D8A419EF0BF01BEF0BF01FEF0BF045
:10163600B186B19C31EF0BF05350D96EDA6A040EC5
:10164600D926020EDE18D8A42BEF0BF02DEF0BF0E7
:1016560031EF0BF0B196B19C31EF0BF01200640E36
:10166600F66E170EF76E000EF86E00EE60F010EED6
:101676003BF00900F5CFEEFFE550E150FAE1A40E8C
:10168600F66E180EF76E000EF86E00EE32F010EEE3
:101696001EF00900F5CFEEFFE550E150FAE100013A
:1016A600A06B9F6B9E6B9D6B9C6B9B6B00EE01F022
:1016B600310EEE6AE806FDE15C905C92000161EF96
:1016C6000CF05350D8A46AEF0BF06CEF0BF06EEFF2
:1016D6000BF08AEF0BF05350D96EDA6A020ED92658
:1016E600DFB878EF0BF07AEF0BF07DEF0BF0B19EE1
:1016F6008AEF0BF05350D96EDA6A020ED926DFA8AC
:1017060087EF0BF089EF0BF08AEF0BF0B18E12002A
:101716005350D8A491EF0BF093EF0BF095EF0BF02D
:10172600B1EF0BF05350D96EDA6A020ED926DFB448
:101736009FEF0BF0A1EF0BF0A4EF0BF0B192B1EF1E
:101746000BF05350D96EDA6A020ED926DFA4AEEF3B
:101756000BF0B0EF0BF0B1EF0BF0B1821200800F7F
:10176600810F820F830F840F920F930F940F950FA3
:10177600960F323A030B131B232B333B020A121A22
:10178600A2AAB2BA030B131B232B0100058A000081
:09179600005E195C19000000005E
:1017A0009D849E94F28EF28CD09E5350D96EDA6A4C
:1017B000050ED926DECF29F0DDCF2AF0A080A1903A
:1017C000F28EF28CD09E5350D96EDA6A070ED9266B
:1017D000DECF27F0DDCF28F01200A1920450B36EC7
:1017E00003C0B2FF01500210D8B4F9EF0BF0FBEFC9
:1017F0000BF007EF0CF002D807EF0CF00500FA6EC3
:101800000150FD6E0250FE6EFF6AFA501200120087
:10181000010E5B6E5A50D8A410EF0CF012EF0CF0D2
:1018200016EF0CF0000E5B6E20EF0CF05AC053F078
:101830004EEC09F05AC053F0000E546EE1EC09F082
:101840005B5012005350D8A428EF0CF02AEF0CF094
:101850002CEF0CF03AEF0CF05350D96EDA6A020E0E
:10186000D926DF50030B546E543AB1505418CF0BA5
:101870005418B16E1200A19027502810D8B443EF2D
:101880000CF045EF0CF051EF0CF002D851EF0CF0DA
:101890000500FA6E2750FD6E2850FE6EFF6AFA5062
:1018A00012001200890F8A0F8B0F8C0F8D0F131BE4
:1018B00000030B00BB0000BA00000101010132224D
:1018C0001202A0EC0CF08C0E0001A16F64EC0AF087
:1018D000950E556EBAEC0AF06CEF0CF0EFEF01F0DC
:1018E0009E900A50CF6E09C0CEFF1200F2940E50A7
:1018F000D76E0DC0D6FF12009E922DC0CCFF1200F5
:1019000081CF50F0F290120081CF50F0F29012008F
:1019100081CF50F0F290120081CF50F0F29012007F
:1019200081CF50F0F290120081CF50F0F29012006F
:1019300081CF50F0F290120081CF50F0F29012005F
:10194000ADEC0CF01200F0921200F0901200F29246
:1019500012009E9412009E9C1200120012001200AF
:020000040030CA
:0E000000FF02191EFF8981FF0FC00FE00F40A5
:00000001FF
